{
  "_format": "hh-sol-artifact-1",
  "contractName": "NFTArtMarketplace",
  "sourceName": "contracts/CONTRACT.sol",
  "abi": [
    {
      "inputs": [],
      "stateMutability": "nonpayable",
      "type": "constructor"
    },
    {
      "inputs": [
        {
          "internalType": "address",
          "name": "sender",
          "type": "address"
        },
        {
          "internalType": "uint256",
          "name": "tokenId",
          "type": "uint256"
        },
        {
          "internalType": "address",
          "name": "owner",
          "type": "address"
        }
      ],
      "name": "ERC721IncorrectOwner",
      "type": "error"
    },
    {
      "inputs": [
        {
          "internalType": "address",
          "name": "operator",
          "type": "address"
        },
        {
          "internalType": "uint256",
          "name": "tokenId",
          "type": "uint256"
        }
      ],
      "name": "ERC721InsufficientApproval",
      "type": "error"
    },
    {
      "inputs": [
        {
          "internalType": "address",
          "name": "approver",
          "type": "address"
        }
      ],
      "name": "ERC721InvalidApprover",
      "type": "error"
    },
    {
      "inputs": [
        {
          "internalType": "address",
          "name": "operator",
          "type": "address"
        }
      ],
      "name": "ERC721InvalidOperator",
      "type": "error"
    },
    {
      "inputs": [
        {
          "internalType": "address",
          "name": "owner",
          "type": "address"
        }
      ],
      "name": "ERC721InvalidOwner",
      "type": "error"
    },
    {
      "inputs": [
        {
          "internalType": "address",
          "name": "receiver",
          "type": "address"
        }
      ],
      "name": "ERC721InvalidReceiver",
      "type": "error"
    },
    {
      "inputs": [
        {
          "internalType": "address",
          "name": "sender",
          "type": "address"
        }
      ],
      "name": "ERC721InvalidSender",
      "type": "error"
    },
    {
      "inputs": [
        {
          "internalType": "uint256",
          "name": "tokenId",
          "type": "uint256"
        }
      ],
      "name": "ERC721NonexistentToken",
      "type": "error"
    },
    {
      "inputs": [
        {
          "internalType": "address",
          "name": "owner",
          "type": "address"
        }
      ],
      "name": "OwnableInvalidOwner",
      "type": "error"
    },
    {
      "inputs": [
        {
          "internalType": "address",
          "name": "account",
          "type": "address"
        }
      ],
      "name": "OwnableUnauthorizedAccount",
      "type": "error"
    },
    {
      "anonymous": false,
      "inputs": [
        {
          "indexed": true,
          "internalType": "address",
          "name": "owner",
          "type": "address"
        },
        {
          "indexed": true,
          "internalType": "address",
          "name": "approved",
          "type": "address"
        },
        {
          "indexed": true,
          "internalType": "uint256",
          "name": "tokenId",
          "type": "uint256"
        }
      ],
      "name": "Approval",
      "type": "event"
    },
    {
      "anonymous": false,
      "inputs": [
        {
          "indexed": true,
          "internalType": "address",
          "name": "owner",
          "type": "address"
        },
        {
          "indexed": true,
          "internalType": "address",
          "name": "operator",
          "type": "address"
        },
        {
          "indexed": false,
          "internalType": "bool",
          "name": "approved",
          "type": "bool"
        }
      ],
      "name": "ApprovalForAll",
      "type": "event"
    },
    {
      "anonymous": false,
      "inputs": [
        {
          "indexed": false,
          "internalType": "uint256",
          "name": "_fromTokenId",
          "type": "uint256"
        },
        {
          "indexed": false,
          "internalType": "uint256",
          "name": "_toTokenId",
          "type": "uint256"
        }
      ],
      "name": "BatchMetadataUpdate",
      "type": "event"
    },
    {
      "anonymous": false,
      "inputs": [
        {
          "indexed": false,
          "internalType": "uint256",
          "name": "_tokenId",
          "type": "uint256"
        }
      ],
      "name": "MetadataUpdate",
      "type": "event"
    },
    {
      "anonymous": false,
      "inputs": [
        {
          "indexed": true,
          "internalType": "uint256",
          "name": "id",
          "type": "uint256"
        },
        {
          "indexed": false,
          "internalType": "string",
          "name": "newMetadata",
          "type": "string"
        }
      ],
      "name": "MetadataUpdated",
      "type": "event"
    },
    {
      "anonymous": false,
      "inputs": [
        {
          "indexed": true,
          "internalType": "uint256",
          "name": "id",
          "type": "uint256"
        },
        {
          "indexed": false,
          "internalType": "string",
          "name": "name",
          "type": "string"
        },
        {
          "indexed": true,
          "internalType": "address",
          "name": "owner",
          "type": "address"
        }
      ],
      "name": "NFTCreated",
      "type": "event"
    },
    {
      "anonymous": false,
      "inputs": [
        {
          "indexed": true,
          "internalType": "uint256",
          "name": "id",
          "type": "uint256"
        }
      ],
      "name": "NFTDelisted",
      "type": "event"
    },
    {
      "anonymous": false,
      "inputs": [
        {
          "indexed": true,
          "internalType": "uint256",
          "name": "id",
          "type": "uint256"
        },
        {
          "indexed": false,
          "internalType": "uint256",
          "name": "price",
          "type": "uint256"
        }
      ],
      "name": "NFTListed",
      "type": "event"
    },
    {
      "anonymous": false,
      "inputs": [
        {
          "indexed": true,
          "internalType": "uint256",
          "name": "id",
          "type": "uint256"
        },
        {
          "indexed": true,
          "internalType": "address",
          "name": "newOwner",
          "type": "address"
        },
        {
          "indexed": false,
          "internalType": "uint256",
          "name": "price",
          "type": "uint256"
        }
      ],
      "name": "NFTSold",
      "type": "event"
    },
    {
      "anonymous": false,
      "inputs": [
        {
          "indexed": true,
          "internalType": "address",
          "name": "previousOwner",
          "type": "address"
        },
        {
          "indexed": true,
          "internalType": "address",
          "name": "newOwner",
          "type": "address"
        }
      ],
      "name": "OwnershipTransferred",
      "type": "event"
    },
    {
      "anonymous": false,
      "inputs": [
        {
          "indexed": true,
          "internalType": "address",
          "name": "from",
          "type": "address"
        },
        {
          "indexed": true,
          "internalType": "address",
          "name": "to",
          "type": "address"
        },
        {
          "indexed": true,
          "internalType": "uint256",
          "name": "tokenId",
          "type": "uint256"
        }
      ],
      "name": "Transfer",
      "type": "event"
    },
    {
      "anonymous": false,
      "inputs": [
        {
          "indexed": true,
          "internalType": "address",
          "name": "to",
          "type": "address"
        },
        {
          "indexed": false,
          "internalType": "uint256",
          "name": "amount",
          "type": "uint256"
        }
      ],
      "name": "Withdrawal",
      "type": "event"
    },
    {
      "inputs": [
        {
          "internalType": "address",
          "name": "to",
          "type": "address"
        },
        {
          "internalType": "uint256",
          "name": "tokenId",
          "type": "uint256"
        }
      ],
      "name": "approve",
      "outputs": [],
      "stateMutability": "nonpayable",
      "type": "function"
    },
    {
      "inputs": [
        {
          "internalType": "address",
          "name": "owner",
          "type": "address"
        }
      ],
      "name": "balanceOf",
      "outputs": [
        {
          "internalType": "uint256",
          "name": "",
          "type": "uint256"
        }
      ],
      "stateMutability": "view",
      "type": "function"
    },
    {
      "inputs": [
        {
          "internalType": "uint256",
          "name": "id",
          "type": "uint256"
        }
      ],
      "name": "buyNFT",
      "outputs": [],
      "stateMutability": "payable",
      "type": "function"
    },
    {
      "inputs": [
        {
          "internalType": "string",
          "name": "name",
          "type": "string"
        },
        {
          "internalType": "string",
          "name": "metadata",
          "type": "string"
        }
      ],
      "name": "createNFT",
      "outputs": [],
      "stateMutability": "nonpayable",
      "type": "function"
    },
    {
      "inputs": [
        {
          "internalType": "uint256",
          "name": "id",
          "type": "uint256"
        }
      ],
      "name": "delistNFT",
      "outputs": [],
      "stateMutability": "nonpayable",
      "type": "function"
    },
    {
      "inputs": [
        {
          "internalType": "uint256",
          "name": "tokenId",
          "type": "uint256"
        }
      ],
      "name": "getApproved",
      "outputs": [
        {
          "internalType": "address",
          "name": "",
          "type": "address"
        }
      ],
      "stateMutability": "view",
      "type": "function"
    },
    {
      "inputs": [
        {
          "internalType": "address",
          "name": "owner",
          "type": "address"
        }
      ],
      "name": "getNFTsByOwner",
      "outputs": [
        {
          "components": [
            {
              "internalType": "uint256",
              "name": "id",
              "type": "uint256"
            },
            {
              "internalType": "string",
              "name": "name",
              "type": "string"
            },
            {
              "internalType": "string",
              "name": "metadata",
              "type": "string"
            },
            {
              "internalType": "address",
              "name": "owner",
              "type": "address"
            },
            {
              "internalType": "uint256",
              "name": "price",
              "type": "uint256"
            },
            {
              "internalType": "bool",
              "name": "forSale",
              "type": "bool"
            }
          ],
          "internalType": "struct NFTArtMarketplace.NFT[]",
          "name": "",
          "type": "tuple[]"
        }
      ],
      "stateMutability": "view",
      "type": "function"
    },
    {
      "inputs": [
        {
          "internalType": "address",
          "name": "owner",
          "type": "address"
        },
        {
          "internalType": "address",
          "name": "operator",
          "type": "address"
        }
      ],
      "name": "isApprovedForAll",
      "outputs": [
        {
          "internalType": "bool",
          "name": "",
          "type": "bool"
        }
      ],
      "stateMutability": "view",
      "type": "function"
    },
    {
      "inputs": [
        {
          "internalType": "uint256",
          "name": "id",
          "type": "uint256"
        },
        {
          "internalType": "uint256",
          "name": "price",
          "type": "uint256"
        }
      ],
      "name": "listNFT",
      "outputs": [],
      "stateMutability": "nonpayable",
      "type": "function"
    },
    {
      "inputs": [],
      "name": "marketplaceOwner",
      "outputs": [
        {
          "internalType": "address",
          "name": "",
          "type": "address"
        }
      ],
      "stateMutability": "view",
      "type": "function"
    },
    {
      "inputs": [],
      "name": "name",
      "outputs": [
        {
          "internalType": "string",
          "name": "",
          "type": "string"
        }
      ],
      "stateMutability": "view",
      "type": "function"
    },
    {
      "inputs": [],
      "name": "nextId",
      "outputs": [
        {
          "internalType": "uint256",
          "name": "",
          "type": "uint256"
        }
      ],
      "stateMutability": "view",
      "type": "function"
    },
    {
      "inputs": [
        {
          "internalType": "uint256",
          "name": "",
          "type": "uint256"
        }
      ],
      "name": "nfts",
      "outputs": [
        {
          "internalType": "uint256",
          "name": "id",
          "type": "uint256"
        },
        {
          "internalType": "string",
          "name": "name",
          "type": "string"
        },
        {
          "internalType": "string",
          "name": "metadata",
          "type": "string"
        },
        {
          "internalType": "address",
          "name": "owner",
          "type": "address"
        },
        {
          "internalType": "uint256",
          "name": "price",
          "type": "uint256"
        },
        {
          "internalType": "bool",
          "name": "forSale",
          "type": "bool"
        }
      ],
      "stateMutability": "view",
      "type": "function"
    },
    {
      "inputs": [],
      "name": "owner",
      "outputs": [
        {
          "internalType": "address",
          "name": "",
          "type": "address"
        }
      ],
      "stateMutability": "view",
      "type": "function"
    },
    {
      "inputs": [
        {
          "internalType": "uint256",
          "name": "tokenId",
          "type": "uint256"
        }
      ],
      "name": "ownerOf",
      "outputs": [
        {
          "internalType": "address",
          "name": "",
          "type": "address"
        }
      ],
      "stateMutability": "view",
      "type": "function"
    },
    {
      "inputs": [],
      "name": "renounceOwnership",
      "outputs": [],
      "stateMutability": "nonpayable",
      "type": "function"
    },
    {
      "inputs": [
        {
          "internalType": "address",
          "name": "from",
          "type": "address"
        },
        {
          "internalType": "address",
          "name": "to",
          "type": "address"
        },
        {
          "internalType": "uint256",
          "name": "tokenId",
          "type": "uint256"
        }
      ],
      "name": "safeTransferFrom",
      "outputs": [],
      "stateMutability": "nonpayable",
      "type": "function"
    },
    {
      "inputs": [
        {
          "internalType": "address",
          "name": "from",
          "type": "address"
        },
        {
          "internalType": "address",
          "name": "to",
          "type": "address"
        },
        {
          "internalType": "uint256",
          "name": "tokenId",
          "type": "uint256"
        },
        {
          "internalType": "bytes",
          "name": "data",
          "type": "bytes"
        }
      ],
      "name": "safeTransferFrom",
      "outputs": [],
      "stateMutability": "nonpayable",
      "type": "function"
    },
    {
      "inputs": [
        {
          "internalType": "address",
          "name": "operator",
          "type": "address"
        },
        {
          "internalType": "bool",
          "name": "approved",
          "type": "bool"
        }
      ],
      "name": "setApprovalForAll",
      "outputs": [],
      "stateMutability": "nonpayable",
      "type": "function"
    },
    {
      "inputs": [
        {
          "internalType": "bytes4",
          "name": "interfaceId",
          "type": "bytes4"
        }
      ],
      "name": "supportsInterface",
      "outputs": [
        {
          "internalType": "bool",
          "name": "",
          "type": "bool"
        }
      ],
      "stateMutability": "view",
      "type": "function"
    },
    {
      "inputs": [],
      "name": "symbol",
      "outputs": [
        {
          "internalType": "string",
          "name": "",
          "type": "string"
        }
      ],
      "stateMutability": "view",
      "type": "function"
    },
    {
      "inputs": [
        {
          "internalType": "uint256",
          "name": "tokenId",
          "type": "uint256"
        }
      ],
      "name": "tokenURI",
      "outputs": [
        {
          "internalType": "string",
          "name": "",
          "type": "string"
        }
      ],
      "stateMutability": "view",
      "type": "function"
    },
    {
      "inputs": [
        {
          "internalType": "address",
          "name": "from",
          "type": "address"
        },
        {
          "internalType": "address",
          "name": "to",
          "type": "address"
        },
        {
          "internalType": "uint256",
          "name": "tokenId",
          "type": "uint256"
        }
      ],
      "name": "transferFrom",
      "outputs": [],
      "stateMutability": "nonpayable",
      "type": "function"
    },
    {
      "inputs": [
        {
          "internalType": "address",
          "name": "newOwner",
          "type": "address"
        }
      ],
      "name": "transferOwnership",
      "outputs": [],
      "stateMutability": "nonpayable",
      "type": "function"
    },
    {
      "inputs": [
        {
          "internalType": "uint256",
          "name": "id",
          "type": "uint256"
        },
        {
          "internalType": "string",
          "name": "newMetadata",
          "type": "string"
        }
      ],
      "name": "updateMetadata",
      "outputs": [],
      "stateMutability": "nonpayable",
      "type": "function"
    },
    {
      "inputs": [],
      "name": "withdraw",
      "outputs": [],
      "stateMutability": "nonpayable",
      "type": "function"
    }
  ],
  "bytecode": "0x608060405234801562000010575f80fd5b5033604051806040016040528060118152602001704e46544172744d61726b6574706c61636560781b815250604051806040016040528060038152602001624e414d60e81b815250815f9081620000689190620001bb565b506001620000778282620001bb565b5050506001600160a01b038116620000a857604051631e4fbdf760e01b81525f600482015260240160405180910390fd5b620000b381620000cc565b50600980546001600160a01b0319163317905562000287565b600780546001600160a01b038381166001600160a01b0319831681179093556040519116919082907f8be0079c531659141344cd1fd0a4f28419497f9722a3daafe3b4186f6b6457e0905f90a35050565b634e487b7160e01b5f52604160045260245ffd5b600181811c908216806200014657607f821691505b6020821081036200016557634e487b7160e01b5f52602260045260245ffd5b50919050565b601f821115620001b657805f5260205f20601f840160051c81016020851015620001925750805b601f840160051c820191505b81811015620001b3575f81556001016200019e565b50505b505050565b81516001600160401b03811115620001d757620001d76200011d565b620001ef81620001e8845462000131565b846200016b565b602080601f83116001811462000225575f84156200020d5750858301515b5f19600386901b1c1916600185901b1785556200027f565b5f85815260208120601f198616915b82811015620002555788860151825594840194600190910190840162000234565b50858210156200027357878501515f19600388901b60f8161c191681555b505060018460011b0185555b505050505050565b61232e80620002955f395ff3fe60806040526004361061017b575f3560e01c806368613d17116100cd578063a22cb46511610087578063cb917b9c11610062578063cb917b9c14610441578063e2afe8b314610460578063e985e9c51461048c578063f2fde38b146104ab575f80fd5b8063a22cb465146103e4578063b88d4fde14610403578063c87b56dd14610422575f80fd5b806368613d171461034257806370a0823114610361578063715018a6146103805780638da5cb5b1461039457806394383f14146103b157806395d89b41146103d0575f80fd5b80633ccfd60b1161013857806353c8388e1161011357806353c8388e146102c257806361b8ce8c146102e15780636352211e14610304578063650025a014610323575f80fd5b80633ccfd60b1461027c57806342842e0e1461029057806351ed8288146102af575f80fd5b806301ffc9a71461017f57806306fdde03146101b3578063081812fc146101d4578063095ea7b31461020b57806323b872dd1461022c578063265aa6211461024b575b5f80fd5b34801561018a575f80fd5b5061019e610199366004611c35565b6104ca565b60405190151581526020015b60405180910390f35b3480156101be575f80fd5b506101c76104f4565b6040516101aa9190611c9d565b3480156101df575f80fd5b506101f36101ee366004611caf565b610583565b6040516001600160a01b0390911681526020016101aa565b348015610216575f80fd5b5061022a610225366004611ce1565b6105aa565b005b348015610237575f80fd5b5061022a610246366004611d09565b6105b9565b348015610256575f80fd5b5061026a610265366004611caf565b610647565b6040516101aa96959493929190611d42565b348015610287575f80fd5b5061022a610796565b34801561029b575f80fd5b5061022a6102aa366004611d09565b6108aa565b61022a6102bd366004611caf565b6108c9565b3480156102cd575f80fd5b5061022a6102dc366004611e3b565b610a7f565b3480156102ec575f80fd5b506102f660085481565b6040519081526020016101aa565b34801561030f575f80fd5b506101f361031e366004611caf565b610b1b565b34801561032e575f80fd5b506009546101f3906001600160a01b031681565b34801561034d575f80fd5b5061022a61035c366004611e7f565b610b25565b34801561036c575f80fd5b506102f661037b366004611ed5565b610c64565b34801561038b575f80fd5b5061022a610ca9565b34801561039f575f80fd5b506007546001600160a01b03166101f3565b3480156103bc575f80fd5b5061022a6103cb366004611eee565b610cbc565b3480156103db575f80fd5b506101c7610d9b565b3480156103ef575f80fd5b5061022a6103fe366004611f0e565b610daa565b34801561040e575f80fd5b5061022a61041d366004611f47565b610db5565b34801561042d575f80fd5b506101c761043c366004611caf565b610dcd565b34801561044c575f80fd5b5061022a61045b366004611caf565b610ed8565b34801561046b575f80fd5b5061047f61047a366004611ed5565b610f55565b6040516101aa9190611fbe565b348015610497575f80fd5b5061019e6104a6366004612078565b61120c565b3480156104b6575f80fd5b5061022a6104c5366004611ed5565b611239565b5f6001600160e01b03198216632483248360e11b14806104ee57506104ee82611276565b92915050565b60605f8054610502906120a9565b80601f016020809104026020016040519081016040528092919081815260200182805461052e906120a9565b80156105795780601f1061055057610100808354040283529160200191610579565b820191905f5260205f20905b81548152906001019060200180831161055c57829003601f168201915b5050505050905090565b5f61058d826112c5565b505f828152600460205260409020546001600160a01b03166104ee565b6105b58282336112fd565b5050565b6001600160a01b0382166105e757604051633250574960e11b81525f60048201526024015b60405180910390fd5b5f6105f383833361130a565b9050836001600160a01b0316816001600160a01b031614610641576040516364283d7b60e01b81526001600160a01b03808616600483015260248201849052821660448201526064016105de565b50505050565b600a6020525f908152604090208054600182018054919291610668906120a9565b80601f0160208091040260200160405190810160405280929190818152602001828054610694906120a9565b80156106df5780601f106106b6576101008083540402835291602001916106df565b820191905f5260205f20905b8154815290600101906020018083116106c257829003601f168201915b5050505050908060020180546106f4906120a9565b80601f0160208091040260200160405190810160405280929190818152602001828054610720906120a9565b801561076b5780601f106107425761010080835404028352916020019161076b565b820191905f5260205f20905b81548152906001019060200180831161074e57829003601f168201915b505050506003830154600484015460059094015492936001600160a01b039091169290915060ff1686565b6009546001600160a01b031633146107e85760405162461bcd60e51b81526020600482015260156024820152742737ba1036b0b935b2ba383630b1b29037bbb732b960591b60448201526064016105de565b478061082d5760405162461bcd60e51b81526020600482015260146024820152734e6f2066756e647320746f20776974686472617760601b60448201526064016105de565b6009546040516001600160a01b039091169082156108fc029083905f818181858888f19350505050158015610864573d5f803e3d5ffd5b506009546040518281526001600160a01b03909116907f7fcf532c15f0a6db0bd6d0e038bea71d30d808c7d98cb3bf7268a95bf5081b659060200160405180910390a250565b6108c483838360405180602001604052805f815250610db5565b505050565b600854811061090b5760405162461bcd60e51b815260206004820152600e60248201526d125b9d985b1a5908139195081a5960921b60448201526064016105de565b5f818152600a60205260409020600581015460ff1661095f5760405162461bcd60e51b815260206004820152601060248201526f4e4654206e6f7420666f722073616c6560801b60448201526064016105de565b80600401543410156109a85760405162461bcd60e51b8152602060048201526012602482015271496e73756666696369656e742066756e647360701b60448201526064016105de565b60038101546001600160a01b03166109c18133856113fc565b6003820180546001600160a01b0319163317905560058201805460ff191690556109eb81846114a9565b335f908152600b602090815260408083208054600181018255908452918320909101859055516001600160a01b038316913480156108fc02929091818181858888f19350505050158015610a41573d5f803e3d5ffd5b50604051348152339084907f6329e40c0365262ebbff5ca819385c2b9713dcaa050ed07866d72c441395699a906020015b60405180910390a3505050565b5f828152600a602052604090206003015482906001600160a01b03163314610ab95760405162461bcd60e51b81526004016105de906120e1565b5f838152600a60205260409020600201610ad38382612150565b50610ade8383611563565b827f459157ba24c7ab9878b165ef465fa6ae2ab42bcd8445f576be378768b0c4730983604051610b0e9190611c9d565b60405180910390a2505050565b5f6104ee826112c5565b600854610b3233826115b2565b610b3c8183611563565b6040805160c08101825282815260208082018681528284018690523360608401525f6080840181905260a08401819052858152600a9092529290208151815591519091906001820190610b8f9082612150565b5060408201516002820190610ba49082612150565b5060608201516003820180546001600160a01b0319166001600160a01b039092169190911790556080820151600482015560a0909101516005909101805460ff1916911515919091179055335f818152600b60209081526040808320805460018101825590845291909220018390555182907f60f5c4e765af6564b65d3e786669dd137f70417ac89c65a6358e9ee47647c09f90610c43908790611c9d565b60405180910390a360088054905f610c5a83612220565b9190505550505050565b5f6001600160a01b038216610c8e576040516322718ad960e21b81525f60048201526024016105de565b506001600160a01b03165f9081526003602052604090205490565b610cb16115cb565b610cba5f6115f8565b565b5f828152600a602052604090206003015482906001600160a01b03163314610cf65760405162461bcd60e51b81526004016105de906120e1565b5f8211610d455760405162461bcd60e51b815260206004820152601f60248201527f5072696365206d7573742062652067726561746572207468616e207a65726f0060448201526064016105de565b5f838152600a60205260409081902060048101849055600501805460ff191660011790555183907fa6cd73580a273eec6c1026108f6b63479fbaef5356dde4ff43e4b38dd187485f90610b0e9085815260200190565b606060018054610502906120a9565b6105b5338383611649565b610dc08484846105b9565b61064133858585856116df565b6060610dd8826112c5565b505f8281526006602052604081208054610df1906120a9565b80601f0160208091040260200160405190810160405280929190818152602001828054610e1d906120a9565b8015610e685780601f10610e3f57610100808354040283529160200191610e68565b820191905f5260205f20905b815481529060010190602001808311610e4b57829003601f168201915b505050505090505f610e8460408051602081019091525f815290565b905080515f03610e95575092915050565b815115610ec7578082604051602001610eaf929190612238565b60405160208183030381529060405292505050919050565b610ed084611807565b949350505050565b5f818152600a602052604090206003015481906001600160a01b03163314610f125760405162461bcd60e51b81526004016105de906120e1565b5f828152600a6020526040808220600501805460ff191690555183917fc0c55a6edead4433d18cb1e287a0a20a2fa003a6f483bc9823d2e504d70d1c6791a25050565b6001600160a01b0381165f908152600b60209081526040808320805482518185028101850190935280835260609493830182828015610fb157602002820191905f5260205f20905b815481526020019060010190808311610f9d575b505050505090505f815167ffffffffffffffff811115610fd357610fd3611d96565b60405190808252806020026020018201604052801561104457816020015b6110316040518060c001604052805f815260200160608152602001606081526020015f6001600160a01b031681526020015f81526020015f151581525090565b815260200190600190039081610ff15790505b5090505f5b825181101561120457600a5f84838151811061106757611067612266565b602002602001015181526020019081526020015f206040518060c00160405290815f82015481526020016001820180546110a0906120a9565b80601f01602080910402602001604051908101604052809291908181526020018280546110cc906120a9565b80156111175780601f106110ee57610100808354040283529160200191611117565b820191905f5260205f20905b8154815290600101906020018083116110fa57829003601f168201915b50505050508152602001600282018054611130906120a9565b80601f016020809104026020016040519081016040528092919081815260200182805461115c906120a9565b80156111a75780601f1061117e576101008083540402835291602001916111a7565b820191905f5260205f20905b81548152906001019060200180831161118a57829003601f168201915b505050918352505060038201546001600160a01b031660208201526004820154604082015260059091015460ff16151560609091015282518390839081106111f1576111f1612266565b6020908102919091010152600101611049565b509392505050565b6001600160a01b039182165f90815260056020908152604080832093909416825291909152205460ff1690565b6112416115cb565b6001600160a01b03811661126a57604051631e4fbdf760e01b81525f60048201526024016105de565b611273816115f8565b50565b5f6001600160e01b031982166380ac58cd60e01b14806112a657506001600160e01b03198216635b5e139f60e01b145b806104ee57506301ffc9a760e01b6001600160e01b03198316146104ee565b5f818152600260205260408120546001600160a01b0316806104ee57604051637e27328960e01b8152600481018490526024016105de565b6108c48383836001611878565b5f828152600260205260408120546001600160a01b03908116908316156113365761133681848661197c565b6001600160a01b03811615611370576113515f855f80611878565b6001600160a01b0381165f90815260036020526040902080545f190190555b6001600160a01b0385161561139e576001600160a01b0385165f908152600360205260409020805460010190555b5f8481526002602052604080822080546001600160a01b0319166001600160a01b0389811691821790925591518793918516917fddf252ad1be2c89b69c2b068fc378daa952ba7f163c4a11628f55a4df523b3ef91a4949350505050565b6001600160a01b03821661142557604051633250574960e11b81525f60048201526024016105de565b5f61143183835f61130a565b90506001600160a01b03811661145d57604051637e27328960e01b8152600481018390526024016105de565b836001600160a01b0316816001600160a01b031614610641576040516364283d7b60e01b81526001600160a01b03808616600483015260248201849052821660448201526064016105de565b6001600160a01b0382165f908152600b60205260408120905b815481101561064157828282815481106114de576114de612266565b905f5260205f2001540361155b57815482906114fc9060019061227a565b8154811061150c5761150c612266565b905f5260205f20015482828154811061152757611527612266565b905f5260205f200181905550818054806115435761154361228d565b600190038181905f5260205f20015f90559055610641565b6001016114c2565b5f82815260066020526040902061157a8282612150565b506040518281527ff8e1a15aba9398e019f0b49df1a4fde98ee17ae345cb5f6b5e2c27f5033e8ce79060200160405180910390a15050565b6105b5828260405180602001604052805f8152506119e0565b6007546001600160a01b03163314610cba5760405163118cdaa760e01b81523360048201526024016105de565b600780546001600160a01b038381166001600160a01b0319831681179093556040519116919082907f8be0079c531659141344cd1fd0a4f28419497f9722a3daafe3b4186f6b6457e0905f90a35050565b6001600160a01b03821661167b57604051630b61174360e31b81526001600160a01b03831660048201526024016105de565b6001600160a01b038381165f81815260056020908152604080832094871680845294825291829020805460ff191686151590811790915591519182527f17307eab39ab6107e8899845ad3d59bd9653f200f220920489ca2b5937696c319101610a72565b6001600160a01b0383163b1561180057604051630a85bd0160e11b81526001600160a01b0384169063150b7a02906117219088908890879087906004016122a1565b6020604051808303815f875af192505050801561175b575060408051601f3d908101601f19168201909252611758918101906122dd565b60015b6117c2573d808015611788576040519150601f19603f3d011682016040523d82523d5f602084013e61178d565b606091505b5080515f036117ba57604051633250574960e11b81526001600160a01b03851660048201526024016105de565b805181602001fd5b6001600160e01b03198116630a85bd0160e11b146117fe57604051633250574960e11b81526001600160a01b03851660048201526024016105de565b505b5050505050565b6060611812826112c5565b505f61182860408051602081019091525f815290565b90505f8151116118465760405180602001604052805f815250611871565b80611850846119f7565b604051602001611861929190612238565b6040516020818303038152906040525b9392505050565b808061188c57506001600160a01b03821615155b1561194d575f61189b846112c5565b90506001600160a01b038316158015906118c75750826001600160a01b0316816001600160a01b031614155b80156118da57506118d8818461120c565b155b156119035760405163a9fbf51f60e01b81526001600160a01b03841660048201526024016105de565b811561194b5783856001600160a01b0316826001600160a01b03167f8c5be1e5ebec7d5bd14f71427d1e84f3dd0314c0f7b2291e5b200ac8c7c3b92560405160405180910390a45b505b50505f90815260046020526040902080546001600160a01b0319166001600160a01b0392909216919091179055565b611987838383611a87565b6108c4576001600160a01b0383166119b557604051637e27328960e01b8152600481018290526024016105de565b60405163177e802f60e01b81526001600160a01b0383166004820152602481018290526044016105de565b6119ea8383611ae8565b6108c4335f8585856116df565b60605f611a0383611b49565b60010190505f8167ffffffffffffffff811115611a2257611a22611d96565b6040519080825280601f01601f191660200182016040528015611a4c576020820181803683370190505b5090508181016020015b5f19016f181899199a1a9b1b9c1cb0b131b232b360811b600a86061a8153600a8504945084611a5657509392505050565b5f6001600160a01b03831615801590610ed05750826001600160a01b0316846001600160a01b03161480611ac05750611ac0848461120c565b80610ed05750505f908152600460205260409020546001600160a01b03908116911614919050565b6001600160a01b038216611b1157604051633250574960e11b81525f60048201526024016105de565b5f611b1d83835f61130a565b90506001600160a01b038116156108c4576040516339e3563760e11b81525f60048201526024016105de565b5f8072184f03e93ff9f4daa797ed6e38ed64bf6a1f0160401b8310611b875772184f03e93ff9f4daa797ed6e38ed64bf6a1f0160401b830492506040015b6d04ee2d6d415b85acef81000000008310611bb3576d04ee2d6d415b85acef8100000000830492506020015b662386f26fc100008310611bd157662386f26fc10000830492506010015b6305f5e1008310611be9576305f5e100830492506008015b6127108310611bfd57612710830492506004015b60648310611c0f576064830492506002015b600a83106104ee5760010192915050565b6001600160e01b031981168114611273575f80fd5b5f60208284031215611c45575f80fd5b813561187181611c20565b5f5b83811015611c6a578181015183820152602001611c52565b50505f910152565b5f8151808452611c89816020860160208601611c50565b601f01601f19169290920160200192915050565b602081525f6118716020830184611c72565b5f60208284031215611cbf575f80fd5b5035919050565b80356001600160a01b0381168114611cdc575f80fd5b919050565b5f8060408385031215611cf2575f80fd5b611cfb83611cc6565b946020939093013593505050565b5f805f60608486031215611d1b575f80fd5b611d2484611cc6565b9250611d3260208501611cc6565b9150604084013590509250925092565b86815260c060208201525f611d5a60c0830188611c72565b8281036040840152611d6c8188611c72565b6001600160a01b0396909616606084015250506080810192909252151560a0909101529392505050565b634e487b7160e01b5f52604160045260245ffd5b5f67ffffffffffffffff80841115611dc457611dc4611d96565b604051601f8501601f19908116603f01168101908282118183101715611dec57611dec611d96565b81604052809350858152868686011115611e04575f80fd5b858560208301375f602087830101525050509392505050565b5f82601f830112611e2c575f80fd5b61187183833560208501611daa565b5f8060408385031215611e4c575f80fd5b82359150602083013567ffffffffffffffff811115611e69575f80fd5b611e7585828601611e1d565b9150509250929050565b5f8060408385031215611e90575f80fd5b823567ffffffffffffffff80821115611ea7575f80fd5b611eb386838701611e1d565b93506020850135915080821115611ec8575f80fd5b50611e7585828601611e1d565b5f60208284031215611ee5575f80fd5b61187182611cc6565b5f8060408385031215611eff575f80fd5b50508035926020909101359150565b5f8060408385031215611f1f575f80fd5b611f2883611cc6565b915060208301358015158114611f3c575f80fd5b809150509250929050565b5f805f8060808587031215611f5a575f80fd5b611f6385611cc6565b9350611f7160208601611cc6565b925060408501359150606085013567ffffffffffffffff811115611f93575f80fd5b8501601f81018713611fa3575f80fd5b611fb287823560208401611daa565b91505092959194509250565b5f60208083018184528085518083526040925060408601915060408160051b8701018488015f5b8381101561206a57603f19898403018552815160c08151855288820151818a87015261201382870182611c72565b915050878201518582038987015261202b8282611c72565b6060848101516001600160a01b0316908801526080808501519088015260a0938401511515939096019290925250509386019390860190600101611fe5565b509098975050505050505050565b5f8060408385031215612089575f80fd5b61209283611cc6565b91506120a060208401611cc6565b90509250929050565b600181811c908216806120bd57607f821691505b6020821081036120db57634e487b7160e01b5f52602260045260245ffd5b50919050565b6020808252601190820152702737ba103a34329027232a1037bbb732b960791b604082015260600190565b601f8211156108c457805f5260205f20601f840160051c810160208510156121315750805b601f840160051c820191505b81811015611800575f815560010161213d565b815167ffffffffffffffff81111561216a5761216a611d96565b61217e8161217884546120a9565b8461210c565b602080601f8311600181146121b1575f841561219a5750858301515b5f19600386901b1c1916600185901b1785556117fe565b5f85815260208120601f198616915b828110156121df578886015182559484019460019091019084016121c0565b50858210156121fc57878501515f19600388901b60f8161c191681555b5050505050600190811b01905550565b634e487b7160e01b5f52601160045260245ffd5b5f600182016122315761223161220c565b5060010190565b5f8351612249818460208801611c50565b83519083019061225d818360208801611c50565b01949350505050565b634e487b7160e01b5f52603260045260245ffd5b818103818111156104ee576104ee61220c565b634e487b7160e01b5f52603160045260245ffd5b6001600160a01b03858116825284166020820152604081018390526080606082018190525f906122d390830184611c72565b9695505050505050565b5f602082840312156122ed575f80fd5b815161187181611c2056fea2646970667358221220d67c0806b21af85e1837b5a59dde875fd21955c666b2b91b8273b49e48e8c00c64736f6c63430008180033",
  "linkReferences": {},
  "deployedLinkReferences": {}
}